:100000000C9462000C948A000C948A000C948A0070
:100010000C948A000C948A000C948A000C948A0038
:100020000C948A000C948A000C948A000C948A0028
:100030000C948A000C948A000C948A000C948A0018
:100040000C94D0020C948A000C9440030C941A0374
:100050000C948A000C948A000C948A000C948A00F8
:100060000C948A000C948A000000000024002700F1
:100070002A0000000000250028002B0000000000DE
:1000800023002600290004040404040404040202DA
:100090000202020203030303030301020408102007
:1000A0004080010204081020010204081020000012
:1000B0000008000201000003040700000000000027
:1000C0000000540411241FBECFEFD8E0DEBFCDBF27
:1000D00011E0A0E0B1E0ECE1F9E002C005900D9282
:1000E000A431B107D9F721E0A4E1B1E001C01D922C
:1000F000A03CB207E1F710E0C2E6D0E004C02197CF
:10010000FE010E948104C136D107C9F70E94720323
:100110000C948C040C940000CF92DF92EF92FF922B
:100120000F931F93CF93DF936C017A018B01C0E093
:10013000D0E0CE15DF0589F0D8016D918D01D60193
:10014000ED91FC910190F081E02DC6010995892B7C
:1001500011F47E0102C02196ECCFC701DF91CF914F
:100160001F910F91FF90EF90DF90CF900895FC01C9
:10017000918D828D981761F0828DDF01A80FB11DDE
:100180005D968C91928D9F5F9F73928F90E0089502
:100190008FEF9FEF0895FC01918D828D981731F0BC
:1001A000828DE80FF11D858D90E008958FEF9FEF10
:1001B0000895FC01918D228D892F90E0805C9F4FE6
:1001C000821B91098F73992708958AE191E00E941B
:1001D000D90021E0892B09F420E0822F0895FC0149
:1001E000848DDF01A80FB11DA35ABF4F2C91848DC0
:1001F00090E001968F739927848FA689B7892C93F5
:10020000A089B1898C9180648C93938D848D98138F
:1002100006C00288F389E02D80818F7D8083089558
:10022000EF92FF920F931F93CF93DF93EC0181E046
:10023000888F9B8D8C8D981305C0E889F989808102
:1002400085FD24C0F62E0B8D10E00F5F1F4F0F733E
:100250001127E02E8C8DE8120CC00FB607FCFACFE8
:10026000E889F989808185FFF5CFCE010E94EF00F2
:10027000F1CF8B8DFE01E80FF11DE35AFF4FF082A5
:100280000B8FEA89FB898081806207C0EE89FF8934
:100290006083E889F98980818064808381E090E0CF
:1002A000DF91CF911F910F91FF90EF900895CF9321
:1002B000DF93EC01888D8823C9F0EA89FB8980816E
:1002C00085FD05C0A889B9898C9186FD0FC00FB640
:1002D00007FCF5CF808185FFF2CFA889B9898C9181
:1002E00085FFEDCFCE010E94EF00E7CFDF91CF91E8
:1002F000089580E090E0892B29F00E94E5008111AB
:100300000C9400000895833081F028F4813099F036
:100310008230A1F008958730A9F08830B9F0843098
:10032000D1F4809180008F7D03C0809180008F7711
:1003300080938000089584B58F7702C084B58F7D47
:1003400084BD08958091B0008F7703C08091B00084
:100350008F7D8093B0000895CF93DF93282F30E0F6
:10036000F901E255FF4F8491F901E656FF4FD49110
:10037000F901EA57FF4FC491CC2391F081110E94FB
:100380008301EC2FF0E0EE0FFF1FE458FF4FA59123
:10039000B491EC91ED2381E090E021F480E002C083
:1003A00080E090E0DF91CF9108951F93CF93DF938A
:1003B000282F30E0F901E255FF4F8491F901E6560C
:1003C000FF4FD491F901EA57FF4FC491CC23C9F0F4
:1003D000162F81110E948301EC2FF0E0EE0FFF1F1A
:1003E000EE58FF4FA591B4918FB7F894111105C045
:1003F0009C91ED2FE095E92302C0EC91ED2BEC935D
:100400008FBFDF91CF911F910895CF93DF9390E03D
:10041000FC01E656FF4F2491FC01EA57FF4F8491FF
:10042000882361F190E0880F991FFC01E859FF4F84
:10043000C591D491FC01EE58FF4FA591B491611183
:1004400009C09FB7F8948881209582238883EC9116
:100450002E230BC0623061F49FB7F8943881822F4D
:10046000809583238883EC912E2B2C939FBF06C00D
:100470008FB7F894E8812E2B28838FBFDF91CF911F
:100480000895CF93DF9387E00E94AC01D1E0892BE0
:1004900009F4D0E0D093160186E00E94AC01C1E0DF
:1004A000892B09F4C0E0C093150185E00E94AC01DE
:1004B00021E0892B09F420E020931401D11105C01B
:1004C000CC2361F081E090E004C0C1110AC082E059
:1004D00090E0909318018093170107C083E090E0AB
:1004E000F8CF1092180110921701809119018033F2
:1004F00021F41092180110921701DF91CF91089505
:1005000061E08BE00E940502E9EBF0E0E491E3306A
:1005100019F150F4E130D1F0E230E1F584B58062B8
:1005200084BD8AE588BD0895E73011F1E83049F1CE
:10053000E43081F5809180008062809380008AE5BC
:1005400090E090938B0080938A00089584B5806832
:1005500084BD8AE587BD089580918000806880937E
:1005600080008AE590E09093890080938800089548
:100570008091B00080688093B0008AE58093B300DA
:1005800008958091B00080628093B0008AE58093E6
:10059000B400089560E08BE00C94D5010E948704BC
:1005A0001F920F920FB60F9211242F933F938F93A8
:1005B0009F93AF93BF938091BC019091BD01A09197
:1005C000BE01B091BF013091BB0123E0230F2D3755
:1005D00020F40196A11DB11D05C026E8230F029647
:1005E000A11DB11D2093BB018093BC019093BD015F
:1005F000A093BE01B093BF018091B7019091B80163
:10060000A091B901B091BA010196A11DB11D8093CD
:10061000B7019093B801A093B901B093BA01BF910B
:10062000AF919F918F913F912F910F900FBE0F909F
:100630001F9018951F920F920FB60F9211242F93AF
:100640003F934F935F936F937F938F939F93AF935A
:10065000BF93EF93FF938AE191E00E94EF00FF9137
:10066000EF91BF91AF919F918F917F916F915F912A
:100670004F913F912F910F900FBE0F901F901895A3
:100680001F920F920FB60F9211242F938F939F9367
:10069000EF93FF93E0912A01F0912B018081E0918B
:1006A0003001F091310182FD12C0908180913301BF
:1006B0008F5F8F7320913401821751F0E0913301E5
:1006C000F0E0E65EFE4F958F8093330101C080819C
:1006D000FF91EF919F918F912F910F900FBE0F90EF
:1006E0001F901895789484B5826084BD84B581602C
:1006F00084BD85B5826085BD85B5816085BD8091ED
:100700006E00816080936E00109281008091810064
:10071000826080938100809181008160809381005C
:10072000809180008160809380008091B10084601E
:100730008093B1008091B00081608093B00080917F
:100740007A00846080937A0080917A00826080933E
:100750007A0080917A00816080937A0080917A009B
:10076000806880937A001092C10060E087E00E9468
:10077000050260E086E00E94050260E085E00E94DC
:10078000050261E08AE00E94050261E089E00E94C2
:10079000050260E08AE00E94D50160E089E00E94E5
:1007A000D501E0912A01F0912B0182E08083E09154
:1007B0002601F09127011082E0912801F091290192
:1007C0008FEC808310923201E0912E01F0912F0185
:1007D00086E08083E0912C01F0912D018081806181
:1007E0008083E0912C01F0912D01808188608083CD
:1007F000E0912C01F0912D01808180688083E0914F
:100800002C01F0912D0180818F7D80830E94410217
:100810008AE191E00E94D900892BC9F08AE191E038
:100820000E94B700682F80931901E0911A01F0919E
:100830001B010190F081E02D8AE191E0099542E0F1
:1008400050E060E171E08AE191E00E948C008091CB
:10085000170190911801009721F161E0039784F44A
:100860008AE00E94D5010E9480020E94410280918C
:10087000170190911801892BB1F760E08AE00FC051
:1008800089E00E94D5010E9480020E94410280916D
:10089000170190911801892BB1F760E089E00E945F
:1008A000D5010E947901B2CFEAE1F1E01382128210
:1008B00088EE93E0A0E0B0E084839583A683B783BD
:1008C00084E091E09183808385EC90E09587848734
:1008D00084EC90E09787868780EC90E0918B808B0A
:1008E00081EC90E0938B828B82EC90E0958B848BF3
:1008F00086EC90E0978B868B118E128E138E148E61
:100900000895EE0FFF1F0590F491E02D099481E00A
:0C09100090E0F8940C948C04F894FFCF55
:10091C000000000010018C00D900B700CB0057017B
:04092C000D0A0000B0
:107E0000112484B714BE81FFF0D085E080938100F7
:107E100082E08093C00088E18093C10086E0809377
:107E2000C20080E18093C4008EE0C9D0259A86E02C
:107E300020E33CEF91E0309385002093840096BBD3
:107E4000B09BFECF1D9AA8958150A9F7CC24DD24C4
:107E500088248394B5E0AB2EA1E19A2EF3E0BF2EE7
:107E6000A2D0813461F49FD0082FAFD0023811F036
:107E7000013811F484E001C083E08DD089C08234E0
:107E800011F484E103C0853419F485E0A6D080C0E4
:107E9000853579F488D0E82EFF2485D0082F10E0AE
:107EA000102F00270E291F29000F111F8ED06801E7
:107EB0006FC0863521F484E090D080E0DECF843638
:107EC00009F040C070D06FD0082F6DD080E0C81688
:107ED00080E7D80618F4F601B7BEE895C0E0D1E017
:107EE00062D089930C17E1F7F0E0CF16F0E7DF06D8
:107EF00018F0F601B7BEE89568D007B600FCFDCFD4
:107F0000A601A0E0B1E02C9130E011968C91119780
:107F100090E0982F8827822B932B1296FA010C0160
:107F200087BEE89511244E5F5F4FF1E0A038BF0790
:107F300051F7F601A7BEE89507B600FCFDCF97BE46
:107F4000E89526C08437B1F42ED02DD0F82E2BD052
:107F50003CD0F601EF2C8F010F5F1F4F84911BD097
:107F6000EA94F801C1F70894C11CD11CFA94CF0C13
:107F7000D11C0EC0853739F428D08EE10CD085E9AC
:107F80000AD08FE07ACF813511F488E018D01DD067
:107F900080E101D065CF982F8091C00085FFFCCF94
:107FA0009093C60008958091C00087FFFCCF809118
:107FB000C00084FD01C0A8958091C6000895E0E648
:107FC000F0E098E1908380830895EDDF803219F02E
:107FD00088E0F5DFFFCF84E1DECF1F93182FE3DFCA
:107FE0001150E9F7F2DF1F91089580E0E8DFEE27F6
:047FF000FF270994CA
:027FFE00040479
:0400000300007E007B
:00000001FF
